:020000001628C0
:0E0006008312031321088A00200882000800DC
:1000140003208A110A128000840AA00A0319A10A83
:08002400F003031D0A28080087
:10002C0083120313850183168501831286018316BF
:10003C008601013083128500FE3086000D30FC00F5
:10004C00FB30FD00FD0B2828FC0B282800000000CD
:10005C00023085007D3086000D30FC00FB30FD0049
:10006C00FD0B3628FC0B3628000000000430850000
:10007C00FB3086000D30FC00FB30FD00FD0B4428EE
:10008C00FC0B442800000000023085007B30860009
:10009C000D30FC00FB30FD00FD0B5228FC0B5228F0
:1000AC000000000002308500FD3086000D30FC00A1
:1000BC00FB30FD00FD0B6028FC0B602800000000ED
:1000CC0008308500FE3086000D30FC00FB30FD0052
:1000DC00FD0B6E28FC0B6E28000000001030850014
:1000EC00043086000D30FC00FB30FD00FD0B7C283D
:1000FC00FC0B7C280000000020308500FB308600C3
:10010C000D30FC00FB30FD00FD0B8A28FC0B8A280F
:08011C00000000001F289128DB
:02400E004A2F37
:00000001FF
