:020000000329D2
:0E000600213083120313FD00FD0B07280800B4
:100014000F3083120313FC004730FD00FD0B102842
:0A002400FC0B10280000000008008B
:06002E00000000000800C4
:1000340083120313E11B2028881321288817611BCE
:100044002528081326280817E11A2A2888122B289D
:100054008816611A2F280812302808165B183428CD
:10006400081535280811881517208811E1193C282E
:1000740088133D2888176119412808134228081756
:10008400E118462888124728881661184B28081258
:100094004C2808165B185028081551280811881593
:1000A400172088115B1C58280A20592803200800AF
:0E00B400831203135A088A00590882000800BC
:1000C200831203135B106008E1001A205B1408001E
:1000D2008316031388110811081288120813881353
:1000E20083128811081188130813881208120A2033
:1000F2000A200A20881608168815172088110A2057
:100102008815172088110A208815172088110A20BF
:1001120008128815172088110A20881517208811BF
:10012200881288178815172088110A208813081644
:1001320088151720881108128815172088110A209F
:1001420088151720881108168815172088110A208B
:10015200081288151720881188170817881608169C
:0C0162008815172088110A205B14080083
:10016E00C928803083120313DC00DC28C030DC0089
:10017E00DC289430DC00DC28D430DC00DC28803035
:10018E00DC00DC28831203135C08013A0319B8283B
:10019E005C08023A0319BD285C08033A0319C0280B
:1001AE005C08043A0319C328C6285D03F0005C08F6
:1001BE00F0077008DC007008E1001A205B10DF0108
:1001CE005F085E07840000080319F5285F085E07C4
:1001DE0084000008E0006120DF0AE7285B140800B5
:1001EE005A208A110A128000840AD90A0319DA0ADF
:0801FE00F003031DF7280800BF
:10020600C42169200130E1001A200C30E1001A20D7
:100216000130DC000130DD002830DE00B72002307E
:10022600DC000230DD002030DE00B7201530FB0098
:100236004B30FC00BE30FD00FD0B1F29FC0B1F29B7
:10024600FB0B1F2900000130E1001A200130DC0001
:100256000430DD005330DE00B7200230DC0003300E
:10026600DD004E30DE00B7201530FB004B30FC00C1
:10027600BE30FD00FD0B3D29FC0B3D29FB0B3D2946
:1002860000000130E1001A200130DC000330DD00FF
:100296003D30DE00B7200230DC000430DD003830AF
:1002A600DE00B7201530FB004B30FC00BE30FD00F1
:1002B600FD0B5B29FC0B5B29FB0B5B290000013066
:1002C600E1001A200130DC000230DD004030DE00A3
:1002D600B7200230DC000330DD004730DE00B720F7
:1002E6001530FB004B30FC00BE30FD00FD0B7929BC
:1002F600FC0B7929FB0B792900000130E1001A205B
:040306000529842918
:1003880020308400393083120313F0008A30D900FA
:080398000130DA00F720080033
:1003140043346F346D3469346C346C346134003478
:100324004D344934433452344F3443344F344E34CF
:10033400543452344F344C344C34453452340034F5
:0A0344004C344F3456344534003475
:06034E0049344E34003476
:0E035400533441345A345A3441344434003462
:0E03620048344F345334533445344E34003451
:0A037000463441344C344C34003460
:0C037A0049344D34523441344E340034C8
:02400E004A2F37
:00000001FF
