:020000001628C0
:0E0006008312031321088A00200882000800DC
:1000140003208A110A128000840AA00A0319A10A83
:08002400F003031D0A28080087
:10002C0083120313870183168701FF308312870025
:10003C000330FB008A30FC005530FD00FD0B2428FA
:10004C00FC0B2428FB0B2428000000008701033044
:10005C00FB008A30FC005530FD00FD0B3328FC0BF7
:10006C003328FB0B332800000000CC308700033012
:10007C00FB008A30FC005530FD00FD0B4328FC0BC7
:10008C004328FB0B43280000000055308700033049
:10009C00FB008A30FC005530FD00FD0B5328FC0B97
:1000AC005328FB0B532800000000AA3087000330B4
:1000BC00FB008A30FC005530FD00FD0B6328FC0B67
:0E00CC006328FB0B6328000000001B286C2833
:02400E004A2F37
:00000001FF
