:020000001528C1
:0C00060083120D088A000C08820008001C
:1000120003208A110A128000840A8C0A03198D0AAD
:08002200C003031D09280800BA
:10002A0083128501831685010F3083128500033000
:10003A00CB008A30CC005530CD00CD0B2228CC0B1A
:10004A002228CB0B22280000000085010330CB00B8
:10005A008A30CC005530CD00CD0B3128CC0B31285D
:10006A00CB0B3128000000000A3085000330CB009A
:10007A008A30CC005530CD00CD0B4128CC0B41281D
:10008A00CB0B412800000000053085000330CB006F
:10009A008A30CC005530CD00CD0B5128CC0B5128DD
:1000AA00CB0B5128000000000E3085000330CB0036
:1000BA008A30CC005530CD00CD0B6128CC0B61289D
:1000CA00CB0B612800000000073085000330CB000D
:1000DA008A30CC005530CD00CD0B7128CC0B71285D
:1000EA00CB0B71280000000085010B30CB002630B5
:1000FA00CC005D30CD00CD0B8028CC0B8028CB0BFB
:0A010A008028000000001928892851
:02400E00FA3F77
:00000001FF
